:1008000000003E4141413E007FBFDFEFF7FBFDFEB0
:1008100000003E4141413E0000000000217F0100F8
:100820000000274545453900000022494949360066
:1008300000000C14247F04000000725151514E003E
:1008400000003E494949260000004040404F7000EA
:1008500000003649494936000000324949493E0006
:1008600000007F484830000000007F484C730000C3
:1008700000007F494949000000003E4141620000FC
:1008800000007F08087F0000000000FFFF0000005C
:10089000007F1008047F00007C4848FF48487C0027
:0B095600EF1FAC0670011E4C70F62273
:10090E00C2B6C2B5E4FEEFC4131313540124FF9212
:10091E00B4EF25E0FFD2B60000C2B60EBE08E7D295
:05092E00B50000C2B598
:0109330022A1
:1008A000E4FBEB90080893F580ED75F008A42410A4
:1008B000F582E43408F583E5822BF582E43583F58F
:1008C00083E493FF12090E7F647E00120956E4FF51
:0808D00012090E0BBB08CB223C
:1008D800E4F50AE4F508AF08E4FCFDFE7B507AC3B2
:1008E800F9F8D3120934400BAD0AAF091208A00574
:1008F8000880E37F507EC3120956050AE50AB41240
:06090800D2E4F50A80CDE7
:0300000002094AA8
:0C094A00787FE4F6D8FD75810A0208D819
:10093400EB9FF5F0EA9E42F0E99D42F0EC6480C83A
:0609440064809845F022DA
:00000001FF
