:100E1F003F065B4F666D7D077F6F777C395E79711B
:060E620001090001080077
:0B0E3E00EF1FAC0670011E4C70F62286
:040B5600AB07AA0639
:100B5A00C3EA648094805042750A40EB1B70011A04
:100B6A006303FF6302FFAD03AC02EC120A038F17A3
:100B7A008E168D158C14E4FFFE7DC87C40AB17AA37
:100B8A0016A915A8141208F8E4FBFAF9783F120816
:100B9A0007120A3CAA06AB078003E4F50A7C277D04
:100BAA0010AF03AE02120ABD741F2FF582740E3EF7
:100BBA00F583E493F50B7C277D10AF03AE02120A8E
:100BCA00BD7E037FE8CFCDCFCECCCE120ABD741F37
:100BDA002FF582740E3EF583E493F50C7C277D1085
:100BEA00AF03AE02120ABD7E037FE8CFCDCFCECCD3
:100BFA00CE120ABD7E007F64CFCDCFCECCCE120AF4
:100C0A00BD741F2FF582740E3EF583E4934480F57C
:100C1A000D7C007D64AF03AE02120ABD7E007F0A1E
:100C2A00CFCDCFCECCCE120ABD741F2FF582740E53
:100C3A003EF583E493F50EAE02AF037C007D6412A9
:100C4A000ABD7E007F0ACFCDCFCECCCE120ABD74AC
:0D0C5A001F2DF582740E3CF583E493F50E1A
:010C6700226A
:100CF400E4FDEDB40800504D900D03F8282873026C
:100D04000D1B020D1F020D23020D27020D2B020DD8
:100D140033020D3B020D43C2A2800EC2A28012C256
:100D2400A28016C2A2801AD2A2C2A3C2A48016D2E2
:100D3400A2C2A3D2A4800ED2A2D2A3C2A48006D2FD
:100D4400A2D2A3D2A4C374059D240AF8E6F5807F39
:0F0D5400647E00120E3EE4F5800DED6406709390
:010D6300226D
:0F0E2F00120E088E128F13120B56120CF480F154
:100DEA00D3EF9400EE940040147D6E7C00ED1D70EC
:0D0DFA00011CED4C70F7EF1F70E61E80E34A
:010E070022C8
:080E49007F477E03DEFEDFFAA5
:010E5100227E
:100DCA00E4FBC2B7120E49D2B730B7110B7F017ECE
:0F0DDA0000120DEAEBD3940540EF7F00227F015A
:010DE90022E7
:0C0DA300120DCA7F017E00120DEA7FCC09
:100DAF00E4FDC2B7EF1392B77E06AC061EEC70FAE5
:0A0DBF00D2B7EFC313FF0DBD09E822
:010DC9002207
:100D6400E4FDFCC2B70FBF0000D2B70FBF00000FF5
:100D7400BF0000A2B7E433C43333335480FBE9C368
:100D8400134BF97E007F04EF1FAA0670011E4A7000
:0E0D9400F60DBD00010CED64094C70C7AF01F7
:010DA200222E
:080E5200120DA37F44020DAF55
:080E5A00120DA37FBE020DAFD3
:100E0800E4FFFE120E52120E5A120D648F14120DC8
:060E180064EFFEE514FF8B
:010E1E0022B1
:10080000020AA8E86480F8E933E83360110460F074
:10081000ED33EC337009E8FCE9FDEAFEEBFF22045E
:1008200060DED3EB9FEA9EE99DE8C2E78CF0C2F759
:1008300095F0400CE8CCF8E9CDF9EACEFAEBCFFB25
:10084000120A7385D0F05804700320D5B3E8047001
:10085000075002B2D5020AB292D5EC0460F7E4CC9C
:10086000C0E0C398F8603B94186008400DD0E0FBEE
:10087000020A8AE4FBFAC9FC8028E830E406E4C9ED
:10088000FBE4CAFCE830E305E4C9CACBFCE8540742
:100890006010F8C3E913F9EA13FAEB13FBEC13FC4D
:1008A000D8F130F52FC3E49CFCEF9BFFEE9AFEEDF0
:1008B00099FDD0E0FBEF4E4D4C701222DB03020A93
:1008C000AFEC2CFCEF33FFEE33FEED33FDED30E704
:1008D000EB020A8AEF2BFFEE3AFEED39FDD0E0FB8A
:1008E00050130BBB0003020AB2ED13FDEE13FEEF33
:0808F00013FFEC13FC020A8A5D
:1008F800EC4D6011E8497017ED33EC3304600DE4FA
:10090800FCFFFEFD22E933E8330470F8020AA8125E
:100918000A7358046009E4CC24815006285009025F
:100928000AB2284003020AAFC0E0EB4A7044B9801B
:1009380006D0E0FB020A9EEF4E701CBD8008EBFF5C
:10094800EAFEE9FD80EBE98DF0A4FEE5F00209E19D
:10095800E9CDF9EAFEEBFFEF89F0A4FCE5F0CE89DA
:10096800F0A42EFFE435F0CD89F0A42DFEE435F097
:100978008067EF4E7005BD80D780C3EF8BF0A4ACC5
:10098800F0EE8BF0A42CFCE435F0F8EF8AF0A42C00
:10099800E5F038FCE433CB8DF0A42CFCE5F03BF813
:1009A800EE8AF0A42CFCE5F038F8E433CF89F0A403
:1009B8002CFCE5F038CF3400CE89F0A42FFFE5F009
:1009C8003EFEE433C98DF0A42EFEE5F039CD8AF061
:1009D800A42FFFE5F03EFEE43DFD33D0E0FB5007D9
:1009E8000BBB000F020AB2EC2CFCEF33FFEE33FE18
:0609F800ED33FD020A8A46
:1009FE0075F020800E75F010800575F0087D007E74
:100A0E00007F003392D530D503120AF3EC33401039
:100A1E00EF33FFEE33FEED33FDEC33FCD5F0ED227C
:0E0A2E00E5F0247EA2D513CC92E7CDCEFF22B8
:100A3C00EDD2E7CD33EC3392D524814006E4FFFEB2
:100A4C00FDFC22FCE4CFCECDCC24E0501174FF8011
:100A5C00EDC3CC13CCCD13CDCE13CECF13CF0470AE
:070A6C00F030D5DE020AF3B1
:100A7300E9D2E7C933E833F892D5EDD2E7CD33ECC9
:070A830033FC5002B2D52242
:100A8A00EC30E7100FBF000C0EBE00080DBD0004CD
:100A9A000BEB6014A2D5EB13FCED92E7FD2274FF79
:100AAA00FCFDFEFF22E480F8A2D574FF13FC7D80D2
:030ABA00E480EFE6
:03000000020C6887
:0C0C6800787FE4F6D8FD758117020CAF10
:100ABD00C2D5EC30E709B2D5E4C39DFDE49CFCEE54
:100ACD0030E715B2D5E4C39FFFE49EFE120B01C3C0
:100ADD00E49DFDE49CFC8003120B0130D507C3E4BB
:060AED009FFFE49EFE22C3
:0E0AF300C3E49FFFE49EFEE49DFDE49CFC2214
:100C7400020E2FE493A3F8E493A34003F68001F259
:100C840008DFF48029E493A3F85407240CC8C33381
:100C9400C4540F4420C8834004F456800146F6DF50
:100CA400E4800B0102040810204080900E62E47E70
:100CB400019360BCA3FF543F30E509541FFEE49345
:100CC400A360010ECF54C025E060A840B8E493A30C
:100CD400FAE493A3F8E493A3C8C582C8CAC583CA37
:100CE400F0A3C8C582C8CAC583CADFE9DEE780BEEF
:010E68000089
:100B0100BC000BBE0029EF8DF084FFADF022E4CCD8
:100B1100F875F008EF2FFFEE33FEEC33FCEE9DECA1
:100B2100984005FCEE9DFE0FD5F0E9E4CEFD22EDE7
:100B3100F8F5F0EE8420D21CFEADF075F008EF2F31
:100B4100FFED33FD4007985006D5F0F222C398FD22
:050B51000FD5F0EA22BF
:00000001FF
