:100ACA003F065B4F666D7D077F6F777C395E797174
:060B0100010D0A010B0AC0
:0B0AE800EF1FAC0670011E4C70F622E0
:070AF300D288D2A8D2AF2285
:070AFA00D28AD2AAD2AF227A
:100ABA00438901758CFC758A18D2A9D2AFD28C22CF
:0E0ADA00120AF3120AFA120ABA12097880FB05
:03000300020A846A
:100A8400C0E0C0D075D000C004C006C0077FE87EB7
:100A940003120AE820B214E50A6002050F750A0180
:100AA400E50FB40303750F00850D0BD007D006D0F6
:060AB40004D0D0D0E032B6
:030013000209E8F7
:1009E800C0E0C0D075D000C004C006C0077F587EE4
:1009F8001B120AE820B330E50A6401702AE50F14D7
:100A0800601314601C2402701B050CE50CB4181448
:100A1800750C00800F0510E510B43C0875100080B7
:100A280003750E00850D0BD007D006D004D0D0D0AA
:020A3800E032AA
:03000B00020A3AAC
:040A3A00C0E0C0D088
:100A3E00758CFC758A180509E5097002050864E8CD
:100A4E007004E50864037029F508F509050ED50B49
:100A5E0004F50AF50FE50EB43C17750E000510E50A
:100A6E0010B43C0D751000050CE50CB41803750C94
:010A7E000077
:050A7F00D0D0D0E032F0
:10097800E4F511E511B40800504D900989F82828CC
:10098800730209A10209A50209A90209AD0209B168
:100998000209B90209C10209C9C2A2800EC2A28015
:1009A80012C2A28016C2A2801AD2A2C2A3C2A48076
:1009B80016D2A2C2A3D2A4800ED2A2D2A3C2A4806D
:1009C80006D2A2D2A3D2A4AF111208007F647E007F
:0F09D800120AE8E4F5800511E511C39408409474
:0109E70022ED
:10080000EFB4080040030208EB900810F8282873A2
:1008100002082802084002085B02086402088102FC
:10082000089E0208A90208C3E50A6010E50F700CD3
:10083000E50E75F00384E5F060418000E50C8077FB
:10084000E50A6013E50F700FE50E75F00384E5F01F
:10085000600280030208D9E50C8076E50E30E002E4
:1008600080418075E50A6015E50FB40110E50E754D
:10087000F00384E5F06004E510803C805CE51080C6
:100880003CE50A6015E50FB40110E50E75F0038430
:10089000E5F06004E5108039803FE5108033E50E17
:1008A00030E004758040228030E50A600EE50FB428
:1008B0000209E50E30E0028004801EE50E75F00AA4
:1008C000848022E50A6016E50FB40211E50E30E0DF
:1008D0000875F00A84E5F0800CE4F58022E50E75D9
:0C08E000F00A84E5F0900ACA93F580222B
:030000000208EC07
:0C08EC00787FE4F6D8FD75811102093315
:1008F800020ADAE493A3F8E493A34003F68001F232
:1009080008DFF48029E493A3F85407240CC8C33300
:10091800C4540F4420C8834004F456800146F6DFCF
:10092800E4800B0102040810204080900B01E47E53
:10093800019360BCA3FF543F30E509541FFEE493C4
:10094800A360010ECF54C025E060A840B8E493A38B
:10095800FAE493A3F8E493A3C8C582C8CAC583CAB6
:10096800F0A3C8C582C8CAC583CADFE9DEE780BE6E
:010B070000ED
:00000001FF
