:100956003F065B4F666D7D077F6F777C395E7971E9
:0609980001090001080046
:10093D008F0A8D0B1209767FA012088CAF0A120850
:09094D008CAF0B12088C02098E1C
:0208FA008F0A63
:1008FC001209767FA012088CAF0A12088C120976A6
:0F090C007FA112088C12091C8F0B12098EAF0BE2
:01091B0022B9
:0B098300EF1FAC0670011E4C70F62246
:1008C900AD097F0112093D7F647E001209837F0112
:1008D9001208FA8F09EF90095693F5807FA07E865A
:1008E9001209830509E509C3940940D4E4F509808F
:0108F900CF2F
:07096600D2A012096DD2A11D
:08096D007F017E02DEFEDFFACD
:01097500225F
:0D097600120966C2A012096DC2A102096D2E
:0A098E00C2A0120968D2A002096D90
:02088C00AD07B6
:10088E00E4FBFAEDC4131313540124FF92A0ED25DB
:10089E00E0FD120968C2A112096D0BBB08E5120931
:1008AE006630A00F0AEAD394C840F6C2A112096DB1
:0A08BE007F0022C2A112096D7F0124
:0108C800220D
:10091C00E4FDFCD2A112096DEC25E0FCA2A0E433AD
:10092C00420412096DC2A112096D0DBD08E5AF0498
:01093C002298
:03000000020800F3
:0C080000787FE4F6D8FD75810B020847F4
:10080C000208C9E493A3F8E493A34003F68001F231
:10081C0008DFF48029E493A3F85407240CC8C333ED
:10082C00C4540F4420C8834004F456800146F6DFBC
:10083C00E4800B0102040810204080900998E47EAB
:10084C00019360BCA3FF543F30E509541FFEE493B1
:10085C00A360010ECF54C025E060A840B8E493A378
:10086C00FAE493A3F8E493A3C8C582C8CAC583CAA3
:10087C00F0A3C8C582C8CAC583CADFE9DEE780BE5B
:01099E000058
:00000001FF
