:100B4F003F065B4F666D7D077F6F777C395E7971EE
:060BA300010D0001080035
:040B6F007FE87E039A
:0B0B7300EF1FAC0670011E4C70F62254
:100A680020B010120B6F20B007AD0D7F01120B36AE
:100A780030B0FD20B110120B6F20B1077F01120AB0
:100A8800F38F0830B1FD20B215120B6F20B20C05A0
:100A98000DE50DD394FF4003E4F50D30B2FD20B30E
:0E0AA8000C120B6F20B303E4F50D30B3FD22EA
:10088C00E50DFB7C037DE8FF7E00120A13744F2FED
:10089C00F582740B3EF583E493F5097C037DE8AF98
:1008AC00037E00120A13AA04AB057D647C00AF031F
:1008BC00AE02120A13744F2FF582740B3EF583E4CB
:1008CC0093F50A7D647C00AF03AE02120A13AA04EE
:1008DC00AB057D0A7C00AF03AE02120A13744F2FD6
:1008EC00F582740B3EF583E493F50B7D0A7C00AF27
:1008FC0003AE02120A13744F2DF582740B3CF58370
:05090C00E493F50C224C
:10091100E508FB7C037DE8FF7E00120A13744F2F6C
:10092100F582740B3EF583E493F50E7C037DE8AF0D
:10093100037E00120A13AA04AB057D647C00AF0399
:10094100AE02120A13744F2FF582740B3EF583E445
:1009510093F50F7D647C00AF03AE02120A13AA0463
:10096100AB057D0A7C00AF03AE02120A13744F2F50
:10097100F582740B3EF583E493F5107D0A7C00AF9C
:1009810003AE02120A13744F2DF582740B3CF583EA
:05099100E493F51122C2
:10099600E4FDEDB40800504D9009A5F8282873022F
:1009A60009BD0209C10209C50209C90209CD020928
:1009B600D50209DD0209E5C2A2800EC2A28012C2DA
:1009C600A28016C2A2801AD2A2C2A3C2A48016D244
:1009D600A2C2A3D2A4800ED2A2D2A3C2A48006D25F
:1009E600A2D2A3D2A4EDD39403400774079D240E8C
:1009F6008006C374039D2409F8E6F5807F647E00B3
:0C0A0600120B73E4F5800DED64077086A0
:010A120022C1
:0E0B7E00120A6812088C12091112099680F2F0
:070B5F00D2A0120B66D2A127
:080B66007F017E02DEFEDFFAD2
:010B6E002264
:0D0B8C00120B5FC2A0120B66C2A1020B6625
:0A0B9900C2A0120B61D2A0020B668D
:020AB600AD078A
:100AB800E4FBFAEDC4131313540124FF92A0ED25AF
:100AC800E0FD120B61C2A1120B660BBB08E5120B0D
:100AD8005F30A00F0AEAD394C840F6C2A1120B6691
:0A0AE8007F0022C2A1120B667F01FD
:010AF20022E1
:100B1500E4FDFCD2A1120B66EC25E0FCA2A0E433B7
:100B25004204120B66C2A1120B660DBD08E5AF04A7
:010B3500229D
:100B3600AC05A907120B8C7FA0120AB6AF01120AE8
:090B4600B6AF04120AB6020B99C5
:020AF300AC074E
:100AF500120B8C7FA0120AB6AF04120AB6120B8C29
:0F0B05007FA1120AB6120B15AD07120B99AF059F
:010B140022BE
:03000000020800F3
:0C080000787FE4F6D8FD758111020847EE
:100A1300BC000BBE0029EF8DF084FFADF022E4CCC7
:100A2300F875F008EF2FFFEE33FEEC33FCEE9DEC90
:100A3300984005FCEE9DFE0FD5F0E9E4CEFD22EDD6
:100A4300F8F5F0EE8420D21CFEADF075F008EF2F20
:100A5300FFED33FD4007985006D5F0F222C398FD11
:050A63000FD5F0EA22AE
:10080C00020B7EE493A3F8E493A34003F68001F279
:10081C0008DFF48029E493A3F85407240CC8C333ED
:10082C00C4540F4420C8834004F456800146F6DFBC
:10083C00E4800B0102040810204080900BA3E47E9E
:10084C00019360BCA3FF543F30E509541FFEE493B1
:10085C00A360010ECF54C025E060A840B8E493A378
:10086C00FAE493A3F8E493A3C8C582C8CAC583CAA3
:10087C00F0A3C8C582C8CAC583CADFE9DEE780BE5B
:010BA900004B
:00000001FF
