:10086D003F065B4F666D7D077F6F777C395E7971D3
:0B088900EF1FAC0670011E4C70F62241
:10080000E4FDEDB40800504D90080FF8282873025D
:10081000082702082B02082F0208330208370208B3
:100820003F02084702084FC2A2800EC2A28012C235
:10083000A28016C2A2801AD2A2C2A3C2A48016D2DB
:10084000A2C2A3D2A4800ED2A2D2A3C2A48006D2F6
:10085000A2D2A3D2A4ED90086D93F5807F647E00B0
:0C086000120889E4F5800DED6408709624
:01086C002269
:0508940012080080FBCA
:0300000002087D76
:0C087D00787FE4F6D8FD7581080208942D
:00000001FF
